{
  "contractName": "ColdChain",
  "abi": [
    {
      "anonymous": false,
      "inputs": [
        {
          "indexed": true,
          "internalType": "address",
          "name": "entityId",
          "type": "address"
        },
        {
          "indexed": false,
          "internalType": "enum ColdChain.Mode",
          "name": "entityMode",
          "type": "uint8"
        }
      ],
      "name": "AddEntity",
      "type": "event"
    },
    {
      "anonymous": false,
      "inputs": [
        {
          "indexed": true,
          "internalType": "uint256",
          "name": "vaccineBatchId",
          "type": "uint256"
        },
        {
          "indexed": true,
          "internalType": "address",
          "name": "manufacturer",
          "type": "address"
        }
      ],
      "name": "AddVaccineBatch",
      "type": "event"
    },
    {
      "anonymous": false,
      "inputs": [
        {
          "indexed": true,
          "internalType": "address",
          "name": "issuer",
          "type": "address"
        },
        {
          "indexed": true,
          "internalType": "address",
          "name": "prover",
          "type": "address"
        },
        {
          "indexed": false,
          "internalType": "uint256",
          "name": "certificateId",
          "type": "uint256"
        }
      ],
      "name": "IssueCertificate",
      "type": "event"
    },
    {
      "inputs": [],
      "name": "MAX_CERTIFICATIONS",
      "outputs": [
        {
          "internalType": "uint256",
          "name": "",
          "type": "uint256"
        }
      ],
      "stateMutability": "view",
      "type": "function"
    },
    {
      "inputs": [],
      "name": "certificateIds",
      "outputs": [
        {
          "internalType": "uint256",
          "name": "",
          "type": "uint256"
        }
      ],
      "stateMutability": "view",
      "type": "function"
    },
    {
      "inputs": [
        {
          "internalType": "uint256",
          "name": "",
          "type": "uint256"
        }
      ],
      "name": "certificates",
      "outputs": [
        {
          "internalType": "uint256",
          "name": "id",
          "type": "uint256"
        },
        {
          "internalType": "address",
          "name": "issuer",
          "type": "address"
        },
        {
          "internalType": "address",
          "name": "prover",
          "type": "address"
        },
        {
          "internalType": "bytes",
          "name": "signature",
          "type": "bytes"
        },
        {
          "internalType": "enum ColdChain.Status",
          "name": "status",
          "type": "uint8"
        }
      ],
      "stateMutability": "view",
      "type": "function"
    },
    {
      "inputs": [
        {
          "internalType": "address",
          "name": "",
          "type": "address"
        }
      ],
      "name": "entities",
      "outputs": [
        {
          "internalType": "address",
          "name": "id",
          "type": "address"
        },
        {
          "internalType": "enum ColdChain.Mode",
          "name": "mode",
          "type": "uint8"
        }
      ],
      "stateMutability": "view",
      "type": "function"
    },
    {
      "inputs": [],
      "name": "vaccineBatchIds",
      "outputs": [
        {
          "internalType": "uint256",
          "name": "",
          "type": "uint256"
        }
      ],
      "stateMutability": "view",
      "type": "function"
    },
    {
      "inputs": [
        {
          "internalType": "uint256",
          "name": "",
          "type": "uint256"
        }
      ],
      "name": "vaccineBatches",
      "outputs": [
        {
          "internalType": "uint256",
          "name": "id",
          "type": "uint256"
        },
        {
          "internalType": "string",
          "name": "brand",
          "type": "string"
        },
        {
          "internalType": "address",
          "name": "manufacturer",
          "type": "address"
        }
      ],
      "stateMutability": "view",
      "type": "function"
    },
    {
      "inputs": [
        {
          "internalType": "address",
          "name": "_id",
          "type": "address"
        },
        {
          "internalType": "string",
          "name": "_mode",
          "type": "string"
        }
      ],
      "name": "addEntity",
      "outputs": [],
      "stateMutability": "nonpayable",
      "type": "function"
    },
    {
      "inputs": [
        {
          "internalType": "string",
          "name": "brand",
          "type": "string"
        },
        {
          "internalType": "address",
          "name": "manufacturer",
          "type": "address"
        }
      ],
      "name": "addVaccineBatch",
      "outputs": [
        {
          "internalType": "uint256",
          "name": "",
          "type": "uint256"
        }
      ],
      "stateMutability": "nonpayable",
      "type": "function"
    },
    {
      "inputs": [
        {
          "internalType": "address",
          "name": "_issuer",
          "type": "address"
        },
        {
          "internalType": "address",
          "name": "_prover",
          "type": "address"
        },
        {
          "internalType": "string",
          "name": "_status",
          "type": "string"
        },
        {
          "internalType": "bytes",
          "name": "signature",
          "type": "bytes"
        }
      ],
      "name": "issueCertificate",
      "outputs": [
        {
          "internalType": "uint256",
          "name": "",
          "type": "uint256"
        }
      ],
      "stateMutability": "nonpayable",
      "type": "function"
    },
    {
      "inputs": [
        {
          "internalType": "bytes32",
          "name": "message",
          "type": "bytes32"
        },
        {
          "internalType": "uint256",
          "name": "id",
          "type": "uint256"
        },
        {
          "internalType": "address",
          "name": "issuer",
          "type": "address"
        }
      ],
      "name": "isMatchingSignature",
      "outputs": [
        {
          "internalType": "bool",
          "name": "",
          "type": "bool"
        }
      ],
      "stateMutability": "view",
      "type": "function"
    }
  ],
  "bytecode": "0x608060405234801561001057600080fd5b506120c9806100206000396000f3fe608060405234801561001057600080fd5b506004361061009e5760003560e01c80634851a01d116100665780634851a01d14610184578063663b3e22146101a2578063709db222146101d6578063b5bad46d146101f4578063fc79b0a9146102105761009e565b806301cf8140146100a357806303a692b9146100d35780631d8ee48a146101055780632a4a2c521461013657806345194c0714610154575b600080fd5b6100bd60048036038101906100b89190611412565b610240565b6040516100ca91906114ca565b60405180910390f35b6100ed60048036038101906100e89190611511565b6105b2565b6040516100fc939291906115d5565b60405180910390f35b61011f600480360381019061011a9190611613565b610684565b60405161012d9291906116b7565b60405180910390f35b61013e6106d5565b60405161014b91906114ca565b60405180910390f35b61016e60048036038101906101699190611716565b6106db565b60405161017b9190611784565b60405180910390f35b61018c61087d565b60405161019991906114ca565b60405180910390f35b6101bc60048036038101906101b79190611511565b610882565b6040516101cd95949392919061183c565b60405180910390f35b6101de61098d565b6040516101eb91906114ca565b60405180910390f35b61020e60048036038101906102099190611896565b610993565b005b61022a600480360381019061022591906118f2565b610b5b565b60405161023791906114ca565b60405180910390f35b600080600460008773ffffffffffffffffffffffffffffffffffffffff1673ffffffffffffffffffffffffffffffffffffffff16815260200190815260200160002090506000600281111561029857610297611640565b5b8160000160149054906101000a900460ff1660028111156102bc576102bb611640565b5b146102fc576040517f08c379a00000000000000000000000000000000000000000000000000000000081526004016102f39061199a565b60405180910390fd5b6000600460008773ffffffffffffffffffffffffffffffffffffffff1673ffffffffffffffffffffffffffffffffffffffff16815260200190815260200160002090506001600281111561035357610352611640565b5b8160000160149054906101000a900460ff16600281111561037757610376611640565b5b146103b7576040517f08c379a00000000000000000000000000000000000000000000000000000000081526004016103ae90611a06565b60405180910390fd5b60006103c286610cec565b905060008060008154809291906103d890611a55565b9190505590506040518060a001604052808281526020018a73ffffffffffffffffffffffffffffffffffffffff1681526020018973ffffffffffffffffffffffffffffffffffffffff1681526020018781526020018360048111156104405761043f611640565b5b815250600360008381526020019081526020016000206000820151816000015560208201518160010160006101000a81548173ffffffffffffffffffffffffffffffffffffffff021916908373ffffffffffffffffffffffffffffffffffffffff16021790555060408201518160020160006101000a81548173ffffffffffffffffffffffffffffffffffffffff021916908373ffffffffffffffffffffffffffffffffffffffff160217905550606082015181600301908051906020019061050a929190611043565b5060808201518160040160006101000a81548160ff0219169083600481111561053657610535611640565b5b02179055509050508773ffffffffffffffffffffffffffffffffffffffff168973ffffffffffffffffffffffffffffffffffffffff167fc9e3e855764ebb21ed83dcdf8ed5e1398c752d6446308e092c28a84a77a199bd8360405161059b91906114ca565b60405180910390a380945050505050949350505050565b60026020528060005260406000206000915090508060000154908060010180546105db90611acc565b80601f016020809104026020016040519081016040528092919081815260200182805461060790611acc565b80156106545780601f1061062957610100808354040283529160200191610654565b820191906000526020600020905b81548152906001019060200180831161063757829003601f168201915b5050505050908060020160009054906101000a900473ffffffffffffffffffffffffffffffffffffffff16905083565b60046020528060005260406000206000915090508060000160009054906101000a900473ffffffffffffffffffffffffffffffffffffffff16908060000160149054906101000a900460ff16905082565b60015481565b6000806003600085815260200190815260200160002090508273ffffffffffffffffffffffffffffffffffffffff168160010160009054906101000a900473ffffffffffffffffffffffffffffffffffffffff1673ffffffffffffffffffffffffffffffffffffffff1614610785576040517f08c379a000000000000000000000000000000000000000000000000000000000815260040161077c90611b49565b60405180910390fd5b600061081d8683600301805461079a90611acc565b80601f01602080910402602001604051908101604052809291908181526020018280546107c690611acc565b80156108135780601f106107e857610100808354040283529160200191610813565b820191906000526020600020905b8154815290600101906020018083116107f657829003601f168201915b5050505050610e61565b90508160010160009054906101000a900473ffffffffffffffffffffffffffffffffffffffff1673ffffffffffffffffffffffffffffffffffffffff168173ffffffffffffffffffffffffffffffffffffffff1614925050509392505050565b600281565b60036020528060005260406000206000915090508060000154908060010160009054906101000a900473ffffffffffffffffffffffffffffffffffffffff16908060020160009054906101000a900473ffffffffffffffffffffffffffffffffffffffff16908060030180546108f790611acc565b80601f016020809104026020016040519081016040528092919081815260200182805461092390611acc565b80156109705780601f1061094557610100808354040283529160200191610970565b820191906000526020600020905b81548152906001019060200180831161095357829003601f168201915b5050505050908060040160009054906101000a900460ff16905085565b60005481565b600061099e82610ed0565b90506000600267ffffffffffffffff8111156109bd576109bc611246565b5b6040519080825280602002602001820160405280156109eb5781602001602082028036833780820191505090505b50905060405180606001604052808573ffffffffffffffffffffffffffffffffffffffff168152602001836002811115610a2857610a27611640565b5b815260200182815250600460008673ffffffffffffffffffffffffffffffffffffffff1673ffffffffffffffffffffffffffffffffffffffff16815260200190815260200160002060008201518160000160006101000a81548173ffffffffffffffffffffffffffffffffffffffff021916908373ffffffffffffffffffffffffffffffffffffffff16021790555060208201518160000160146101000a81548160ff02191690836002811115610ae257610ae1611640565b5b02179055506040820151816001019080519060200190610b039291906110c9565b509050508373ffffffffffffffffffffffffffffffffffffffff167fc5479cebce58ee1a06da2a7a556312e0a6153f19a03c522e9a460aa994add4d583604051610b4d9190611b69565b60405180910390a250505050565b600080600267ffffffffffffffff811115610b7957610b78611246565b5b604051908082528060200260200182016040528015610ba75781602001602082028036833780820191505090505b509050600060016000815480929190610bbf90611a55565b91905055905060405180608001604052808281526020018681526020018573ffffffffffffffffffffffffffffffffffffffff1681526020018381525060026000838152602001908152602001600020600082015181600001556020820151816001019080519060200190610c35929190611116565b5060408201518160020160006101000a81548173ffffffffffffffffffffffffffffffffffffffff021916908373ffffffffffffffffffffffffffffffffffffffff1602179055506060820151816003019080519060200190610c999291906110c9565b509050508373ffffffffffffffffffffffffffffffffffffffff16817fe85391abb5e51659c581dd95107048251657ee66755655cc08c9c0ec3a0a913960405160405180910390a3809250505092915050565b60008082604051602001610d009190611bc0565b604051602081830303815290604052805190602001209050604051602001610d2790611c23565b604051602081830303815290604052805190602001208103610d4d576000915050610e5c565b604051602001610d5c90611c84565b604051602081830303815290604052805190602001208103610d82576001915050610e5c565b604051602001610d9190611ce5565b604051602081830303815290604052805190602001208103610db7576002915050610e5c565b604051602001610dc690611d46565b604051602081830303815290604052805190602001208103610dec576003915050610e5c565b604051602001610dfb90611da7565b604051602081830303815290604052805190602001208103610e21576004915050610e5c565b6040517f08c379a0000000000000000000000000000000000000000000000000000000008152600401610e5390611e08565b60405180910390fd5b919050565b600080600080610e7085610fdb565b92509250925060018684848460405160008152602001604052604051610e999493929190611e53565b6020604051602081039080840390855afa158015610ebb573d6000803e3d6000fd5b50505060206040510351935050505092915050565b60008082604051602001610ee49190611bc0565b604051602081830303815290604052805190602001209050604051602001610f0b90611ee4565b604051602081830303815290604052805190602001208103610f31576000915050610fd6565b604051602001610f4090611f45565b604051602081830303815290604052805190602001208103610f66576001915050610fd6565b604051602001610f7590611fa6565b604051602081830303815290604052805190602001208103610f9b576002915050610fd6565b6040517f08c379a0000000000000000000000000000000000000000000000000000000008152600401610fcd90612007565b60405180910390fd5b919050565b60008060006041845114611024576040517f08c379a000000000000000000000000000000000000000000000000000000000815260040161101b90612073565b60405180910390fd5b6020840151915060408401519050606084015160001a92509193909250565b82805461104f90611acc565b90600052602060002090601f01602090048101928261107157600085556110b8565b82601f1061108a57805160ff19168380011785556110b8565b828001600101855582156110b8579182015b828111156110b757825182559160200191906001019061109c565b5b5090506110c5919061119c565b5090565b828054828255906000526020600020908101928215611105579160200282015b828111156111045782518255916020019190600101906110e9565b5b509050611112919061119c565b5090565b82805461112290611acc565b90600052602060002090601f016020900481019282611144576000855561118b565b82601f1061115d57805160ff191683800117855561118b565b8280016001018555821561118b579182015b8281111561118a57825182559160200191906001019061116f565b5b509050611198919061119c565b5090565b5b808211156111b557600081600090555060010161119d565b5090565b6000604051905090565b600080fd5b600080fd5b600073ffffffffffffffffffffffffffffffffffffffff82169050919050565b60006111f8826111cd565b9050919050565b611208816111ed565b811461121357600080fd5b50565b600081359050611225816111ff565b92915050565b600080fd5b600080fd5b6000601f19601f8301169050919050565b7f4e487b7100000000000000000000000000000000000000000000000000000000600052604160045260246000fd5b61127e82611235565b810181811067ffffffffffffffff8211171561129d5761129c611246565b5b80604052505050565b60006112b06111b9565b90506112bc8282611275565b919050565b600067ffffffffffffffff8211156112dc576112db611246565b5b6112e582611235565b9050602081019050919050565b82818337600083830152505050565b600061131461130f846112c1565b6112a6565b9050828152602081018484840111156113305761132f611230565b5b61133b8482856112f2565b509392505050565b600082601f8301126113585761135761122b565b5b8135611368848260208601611301565b91505092915050565b600067ffffffffffffffff82111561138c5761138b611246565b5b61139582611235565b9050602081019050919050565b60006113b56113b084611371565b6112a6565b9050828152602081018484840111156113d1576113d0611230565b5b6113dc8482856112f2565b509392505050565b600082601f8301126113f9576113f861122b565b5b81356114098482602086016113a2565b91505092915050565b6000806000806080858703121561142c5761142b6111c3565b5b600061143a87828801611216565b945050602061144b87828801611216565b935050604085013567ffffffffffffffff81111561146c5761146b6111c8565b5b61147887828801611343565b925050606085013567ffffffffffffffff811115611499576114986111c8565b5b6114a5878288016113e4565b91505092959194509250565b6000819050919050565b6114c4816114b1565b82525050565b60006020820190506114df60008301846114bb565b92915050565b6114ee816114b1565b81146114f957600080fd5b50565b60008135905061150b816114e5565b92915050565b600060208284031215611527576115266111c3565b5b6000611535848285016114fc565b91505092915050565b600081519050919050565b600082825260208201905092915050565b60005b8381101561157857808201518184015260208101905061155d565b83811115611587576000848401525b50505050565b60006115988261153e565b6115a28185611549565b93506115b281856020860161155a565b6115bb81611235565b840191505092915050565b6115cf816111ed565b82525050565b60006060820190506115ea60008301866114bb565b81810360208301526115fc818561158d565b905061160b60408301846115c6565b949350505050565b600060208284031215611629576116286111c3565b5b600061163784828501611216565b91505092915050565b7f4e487b7100000000000000000000000000000000000000000000000000000000600052602160045260246000fd5b600381106116805761167f611640565b5b50565b60008190506116918261166f565b919050565b60006116a182611683565b9050919050565b6116b181611696565b82525050565b60006040820190506116cc60008301856115c6565b6116d960208301846116a8565b9392505050565b6000819050919050565b6116f3816116e0565b81146116fe57600080fd5b50565b600081359050611710816116ea565b92915050565b60008060006060848603121561172f5761172e6111c3565b5b600061173d86828701611701565b935050602061174e868287016114fc565b925050604061175f86828701611216565b9150509250925092565b60008115159050919050565b61177e81611769565b82525050565b60006020820190506117996000830184611775565b92915050565b600081519050919050565b600082825260208201905092915050565b60006117c68261179f565b6117d081856117aa565b93506117e081856020860161155a565b6117e981611235565b840191505092915050565b6005811061180557611804611640565b5b50565b6000819050611816826117f4565b919050565b600061182682611808565b9050919050565b6118368161181b565b82525050565b600060a08201905061185160008301886114bb565b61185e60208301876115c6565b61186b60408301866115c6565b818103606083015261187d81856117bb565b905061188c608083018461182d565b9695505050505050565b600080604083850312156118ad576118ac6111c3565b5b60006118bb85828601611216565b925050602083013567ffffffffffffffff8111156118dc576118db6111c8565b5b6118e885828601611343565b9150509250929050565b60008060408385031215611909576119086111c3565b5b600083013567ffffffffffffffff811115611927576119266111c8565b5b61193385828601611343565b925050602061194485828601611216565b9150509250929050565b7f496e76616c696420697373756572000000000000000000000000000000000000600082015250565b6000611984600e83611549565b915061198f8261194e565b602082019050919050565b600060208201905081810360008301526119b381611977565b9050919050565b7f496e76616c69642070726f766572000000000000000000000000000000000000600082015250565b60006119f0600e83611549565b91506119fb826119ba565b602082019050919050565b60006020820190508181036000830152611a1f816119e3565b9050919050565b7f4e487b7100000000000000000000000000000000000000000000000000000000600052601160045260246000fd5b6000611a60826114b1565b91507fffffffffffffffffffffffffffffffffffffffffffffffffffffffffffffffff8203611a9257611a91611a26565b5b600182019050919050565b7f4e487b7100000000000000000000000000000000000000000000000000000000600052602260045260246000fd5b60006002820490506001821680611ae457607f821691505b602082108103611af757611af6611a9d565b5b50919050565b7f49737375657220646f6573206e6f74206d617463680000000000000000000000600082015250565b6000611b33601583611549565b9150611b3e82611afd565b602082019050919050565b60006020820190508181036000830152611b6281611b26565b9050919050565b6000602082019050611b7e60008301846116a8565b92915050565b600081905092915050565b6000611b9a8261153e565b611ba48185611b84565b9350611bb481856020860161155a565b80840191505092915050565b6000611bcc8284611b8f565b915081905092915050565b7f4d414e5546414354555245440000000000000000000000000000000000000000600082015250565b6000611c0d600c83611b84565b9150611c1882611bd7565b600c82019050919050565b6000611c2e82611c00565b9150819050919050565b7f44454c49564552494e475f494e5445524e4154494f4e414c0000000000000000600082015250565b6000611c6e601883611b84565b9150611c7982611c38565b601882019050919050565b6000611c8f82611c61565b9150819050919050565b7f53544f5245440000000000000000000000000000000000000000000000000000600082015250565b6000611ccf600683611b84565b9150611cda82611c99565b600682019050919050565b6000611cf082611cc2565b9150819050919050565b7f44454c49564552494e475f4c4f43414c00000000000000000000000000000000600082015250565b6000611d30601083611b84565b9150611d3b82611cfa565b601082019050919050565b6000611d5182611d23565b9150819050919050565b7f44454c4956455245440000000000000000000000000000000000000000000000600082015250565b6000611d91600983611b84565b9150611d9c82611d5b565b600982019050919050565b6000611db282611d84565b9150819050919050565b7f496e76616c696420737461747573000000000000000000000000000000000000600082015250565b6000611df2600e83611549565b9150611dfd82611dbc565b602082019050919050565b60006020820190508181036000830152611e2181611de5565b9050919050565b611e31816116e0565b82525050565b600060ff82169050919050565b611e4d81611e37565b82525050565b6000608082019050611e686000830187611e28565b611e756020830186611e44565b611e826040830185611e28565b611e8f6060830184611e28565b95945050505050565b7f4953535545520000000000000000000000000000000000000000000000000000600082015250565b6000611ece600683611b84565b9150611ed982611e98565b600682019050919050565b6000611eef82611ec1565b9150819050919050565b7f50524f5645520000000000000000000000000000000000000000000000000000600082015250565b6000611f2f600683611b84565b9150611f3a82611ef9565b600682019050919050565b6000611f5082611f22565b9150819050919050565b7f5645524946494552000000000000000000000000000000000000000000000000600082015250565b6000611f90600883611b84565b9150611f9b82611f5a565b600882019050919050565b6000611fb182611f83565b9150819050919050565b7f496e76616c696420656e74697479206d6f646500000000000000000000000000600082015250565b6000611ff1601383611549565b9150611ffc82611fbb565b602082019050919050565b6000602082019050818103600083015261202081611fe4565b9050919050565b7f496e76616c6964207369676e6174757265206c656e6774680000000000000000600082015250565b600061205d601883611549565b915061206882612027565b602082019050919050565b6000602082019050818103600083015261208c81612050565b905091905056fea2646970667358221220a948db0150a058a9e594d7e657306e8dba6fdff3bf340f70985244d43399767164736f6c634300080d0033",
  "immutableReferences": {},
  "source": "// SPDX-License-Identifier: MIT\r\npragma solidity >=0.7.0 <0.9.0;\r\n\r\nlibrary CryptoSuite {\r\n    function splitSignature(bytes memory sig) internal pure returns (uint8 v, bytes32 r, bytes32 s) {\r\n        require(sig.length == 65, \"Invalid signature length\");\r\n\r\n        assembly {\r\n            r := mload(add(sig, 32))\r\n            s := mload(add(sig, 64))\r\n            v := byte(0, mload(add(sig, 96)))\r\n        }\r\n    }\r\n\r\n    function recoverSigner(bytes32 message, bytes memory sig) internal pure returns (address) {\r\n        (uint8 v, bytes32 r, bytes32 s) = splitSignature(sig);\r\n        return ecrecover(message, v, r, s);\r\n    }\r\n}\r\n\r\ncontract ColdChain {\r\n    enum Mode { ISSUER, PROVER, VERIFIER }\r\n    enum Status { MANUFACTURED, DELIVERING_INTERNATIONAL, STORED, DELIVERING_LOCAL, DELIVERED }\r\n\r\n    struct Entity {\r\n        address id;\r\n        Mode mode;\r\n        uint[] certificateIds;\r\n    }\r\n\r\n    struct Certificate {\r\n        uint id;\r\n        address issuer;\r\n        address prover;\r\n        bytes signature;\r\n        Status status;\r\n    }\r\n\r\n    struct VaccineBatch {\r\n        uint id;\r\n        string brand;\r\n        address manufacturer;\r\n        uint[] certificateIds;\r\n    }\r\n\r\n    uint public constant MAX_CERTIFICATIONS = 2;\r\n    uint public certificateIds;\r\n    uint public vaccineBatchIds;\r\n\r\n    mapping(uint => VaccineBatch) public vaccineBatches;\r\n    mapping(uint => Certificate) public certificates;\r\n    mapping(address => Entity) public entities;\r\n\r\n    event AddEntity(address indexed entityId, Mode entityMode);\r\n    event AddVaccineBatch(uint indexed vaccineBatchId, address indexed manufacturer);\r\n    event IssueCertificate(address indexed issuer, address indexed prover, uint certificateId);\r\n\r\n    function addEntity(address _id, string memory _mode) public {\r\n        Mode mode = unmarshalMode(_mode);\r\n        uint[] memory _certificateIds = new uint[](MAX_CERTIFICATIONS);\r\n        entities[_id] = Entity(_id, mode, _certificateIds);\r\n\r\n        emit AddEntity(_id, mode);\r\n    }\r\n\r\n    function unmarshalMode(string memory _mode) private pure returns (Mode mode) {\r\n        bytes32 encodedMode = keccak256(abi.encodePacked(_mode));\r\n        if (encodedMode == keccak256(abi.encodePacked(\"ISSUER\"))) {\r\n            return Mode.ISSUER;\r\n        } else if (encodedMode == keccak256(abi.encodePacked(\"PROVER\"))) {\r\n            return Mode.PROVER;\r\n        } else if (encodedMode == keccak256(abi.encodePacked(\"VERIFIER\"))) {\r\n            return Mode.VERIFIER;\r\n        }\r\n        revert(\"Invalid entity mode\");\r\n    }\r\n\r\n    function addVaccineBatch(string memory brand, address manufacturer) public returns (uint) {\r\n        uint[] memory _certificateIds = new uint[](MAX_CERTIFICATIONS);\r\n        uint id = vaccineBatchIds++;\r\n        vaccineBatches[id] = VaccineBatch(id, brand, manufacturer, _certificateIds);\r\n\r\n        emit AddVaccineBatch(id, manufacturer);\r\n        return id;\r\n    }\r\n\r\n    function issueCertificate(\r\n        address _issuer,\r\n        address _prover,\r\n        string memory _status,\r\n        bytes memory signature\r\n    ) public returns (uint) {\r\n        Entity storage issuerEntity = entities[_issuer];\r\n        require(issuerEntity.mode == Mode.ISSUER, \"Invalid issuer\");\r\n\r\n        Entity storage proverEntity = entities[_prover];\r\n        require(proverEntity.mode == Mode.PROVER, \"Invalid prover\");\r\n\r\n        Status status = unmarshalStatus(_status);\r\n        uint id = certificateIds++;\r\n        certificates[id] = Certificate(id, _issuer, _prover, signature, status);\r\n\r\n        emit IssueCertificate(_issuer, _prover, id);\r\n        return id;\r\n    }\r\n\r\n    function unmarshalStatus(string memory _status) private pure returns (Status status) {\r\n        bytes32 encodedStatus = keccak256(abi.encodePacked(_status));\r\n        if (encodedStatus == keccak256(abi.encodePacked(\"MANUFACTURED\"))) {\r\n            return Status.MANUFACTURED;\r\n        } else if (encodedStatus == keccak256(abi.encodePacked(\"DELIVERING_INTERNATIONAL\"))) {\r\n            return Status.DELIVERING_INTERNATIONAL;\r\n        } else if (encodedStatus == keccak256(abi.encodePacked(\"STORED\"))) {\r\n            return Status.STORED;\r\n        } else if (encodedStatus == keccak256(abi.encodePacked(\"DELIVERING_LOCAL\"))) {\r\n            return Status.DELIVERING_LOCAL;\r\n        } else if (encodedStatus == keccak256(abi.encodePacked(\"DELIVERED\"))) {\r\n            return Status.DELIVERED;\r\n        }\r\n        revert(\"Invalid status\");\r\n    }\r\n\r\n    function isMatchingSignature(bytes32 message, uint id, address issuer) public view returns (bool) {\r\n        Certificate storage cert = certificates[id];\r\n        require(cert.issuer == issuer, \"Issuer does not match\");\r\n\r\n        address recoveredSigner = CryptoSuite.recoverSigner(message, cert.signature);\r\n        return recoveredSigner == cert.issuer;\r\n    }\r\n}\r\n",
  "sourcePath": "C:\\Users\\vshks\\Downloads\\ColdChain\\backend\\contracts\\ColdChain.sol",
  "compiler": {
    "name": "solc",
    "version": "0.8.13+commit.abaa5c0e.Emscripten.clang"
  },
  "schemaVersion": "3.4.16",
  "updatedAt": "2024-10-26T09:43:24.180Z",
  "devdoc": {
    "kind": "dev",
    "methods": {},
    "version": 1
  },
  "userdoc": {
    "kind": "user",
    "methods": {},
    "version": 1
  }
}